:020000040800F2
:10000000D0070020A10100080D1B000843170008BD
:10001000FD19000811030008351F0008000000004A
:10002000000000000000000000000000111B00089C
:1000300049070008000000000F1B0008131B000800
:10004000BB010008BB010008BB010008BB010008A0
:10005000BB010008BB010008BB010008BB01000890
:10006000BB010008BB010008BB010008BB01000880
:10007000BB010008BB010008BB010008BB01000870
:10008000BB010008BB010008BB010008BB01000860
:10009000BB010008BB010008BB010008BB01000850
:1000A000BB010008BB010008BB010008BB01000840
:1000B000BB010008BB010008BB010008BB01000830
:1000C000BB010008BB010008BB010008BB01000820
:1000D000BB0100081D1F0008BB010008291F000804
:1000E000BB010008BB010008BB010008BB01000800
:1000F000BB010008BB010008BB010008BB010008F0
:10010000BB010008BB010008BB010008BB010008DF
:10011000BB010008BB010008BB010008BB010008CF
:10012000BB010008BB010008BB010008BB010008BF
:10013000BB010008BB010008BB010008BB010008AF
:10014000BB010008BB010008BB010008BB0100089F
:10015000BB010008BB010008BB010008BB0100088F
:10016000BB010008BB010008BB010008BB0100087F
:10017000BB010008BB010008BB0100080000000033
:10018000BB010008BB010008DFF810D000F0AEF89A
:1001900000480047BD210008AFF30080D0070020D1
:1001A0000648804706480047FEE7FEE7FEE7FEE711
:1001B000FEE7FEE7FEE7FEE7FEE7FEE7AD1B000811
:1001C000890100082DE9F05F0546002092469B4614
:1001D00088460646814640241BE02846414647465D
:1001E000224600F072F853465A46C01A914110D385
:1001F00011461846224600F059F82D1A67EB0108FF
:100200004F4622460120002100F050F817EB00096C
:100210004E41201EA4F10104DFDC484631462A4647
:100220004346BDE8F09FD2B201E000F8012B491E21
:10023000FBD270470022F6E710B513460A46044683
:100240001946FFF7F0FF204610BD10B5002200E070
:10025000521C835C8C5CA34201D1002BF8D1D8B234
:10026000E1B2401A10BD000070B50F4D00B928680A
:10027000002412E00A4602E09E4203D0521C13788A
:10028000002BF9D1DAB2224305D02BB124B10021E1
:1002900000F8011B04E00446401C0678002EE9D15A
:1002A0002860204670BD000048000020202A04DBA2
:1002B000203A00FA02F1002070479140C2F1200379
:1002C00020FA03F3194390407047202A04DB203AB8
:1002D00021FA02F00021704721FA02F3D040C2F166
:1002E000200291400843194670470000064C074D14
:1002F00006E0E06840F0010394E8070098471034F6
:10030000AC42F6D3FFF744FFF0270008102800089E
:10031000FEE7000010B501221C491D4801F09CF9C0
:100320001CA001F009FE1C4801F006FE1B4801F06C
:1003300003FE1B4801F000FE1A4801F0FDFD1A48BB
:1003400001F0FAFD194801F0F7FD194801F0F4FD3C
:10035000184801F0F1FD184801F0EEFD174801F0D2
:10036000EBFD174801F0E8FD0AA001F0E5FD15A03E
:1003700001F0E2FD224801F0DFFD06A001F0DCFD06
:10038000BDE810401FA001F0D7BD00000A0000200A
:100390004C0000200D0A0000A4220008E023000801
:1003A00054250008D0250008D82400084C26000851
:1003B000C8260008442700085C24000864230008BD
:1003C000282200082020202020202020202020205B
:1003D000202020202020202020202020202020201D
:1003E00020202020202057656C636F6D6520746F7E
:1003F000204D6F546F6F6C2056302E310D0A000067
:10040000202300083E3E20002DE9F84F4F480168A8
:100410004F4C6268891A322946D3006860602078A0
:10042000002841D04B49084410F8011C0D2901D087
:100430000A2939D1002600F8016C47A001F07CFDA3
:1004400046A14448FFF710FF834644A10020FFF770
:100450000BFF0090BBF100004FF4FA7A1CD040A1D2
:10046000FFF7F3FE404FDFF8048100B340A1584688
:10047000FFF7EBFE002830D03FA15846FFF7E5FE1E
:1004800000282FD03EA15846FFF7DFFE00282ED0CF
:10049000B946012547464BE03BA001F04DFD2670D3
:1004A00051462C48FFF7C6FE0020BDE8F88F39A062
:1004B00001F042FDB946012547460AE059F83500EA
:1004C000436803B939A3026829463CA001F034FD12
:1004D0006D1C38688542F1DBDEE73BA001F02CFDA6
:1004E0003DA030E044A001F027FD45A02BE051A045
:1004F00001F022FD00F046FC5449B0FBF1F154A09C
:1005000001F01AFD00F0A4FA014658A001F014FD14
:10051000C2E759F83500C84601685846FFF795FE0E
:1005200028B9667058F835000169009888476D1C35
:1005300038688542EDDB60780028ADD0594650A080
:1005400001F0FAFC54A001F0F7FCA5E744000020FC
:1005500008000020DC0100200D0A0000200000003F
:1005600068656C7000000000DC00002004000020C2
:1005700076657273696F6E00636C6561720000006E
:10058000737973696E666F004D6F52544F53242018
:1005900000000000417661696C61626C6520636FE8
:1005A0006D6D616E64733A0D0A0000004E6F206439
:1005B00065736372697074696F6E000025642E2024
:1005C00025733A2025730A004D6F546F6F6C2056C7
:1005D000302E310D0A0000004275696C643A204DDE
:1005E000617920313820323032352032333A32329C
:1005F0003A32370D0A0000001B5B324A1B5B480091
:100600004D6F546F6F6C2056302E31202D20547951
:100610007065202768656C702720666F7220617690
:1006200061696C61626C6520636F6D6D616E64738E
:100630000D0A000053797374656D20496E666F7200
:100640006D6174696F6E3A0D0A00000040420F0040
:1006500020204350553A2053544D333246343037DE
:1006600020402025644D487A0D0A00002020557056
:1006700074696D653A20256C75206D730D0A000054
:10068000556E6B6E6F776E20636F6D6D616E643A41
:100690002025730D0A0000005479706520276865D5
:1006A0006C702720666F7220617661696C61626C84
:1006B0006520636F6D6D616E64730D0A000000004C
:1006C00010B500681A49884230D11A4800681A4C9F
:1006D0000122A11C6060194800F0BEFFA078184AF2
:1006E000A0F120015E2914D90D2812D00A2810D0BB
:1006F000082801D07F2819D12078002816D0401E64
:10070000C0B2207000211154BDE810400DA001F0CE
:1007100013BC217832235054491C21700649012210
:10072000BDE81040891C054800F0AEBF10BD0000B8
:100730000010014044000020080000204C00002070
:10074000DC01002008200800704772B6FEE72DE9A2
:10075000F0410446A66D00F07BF9054694F835009B
:100760000027022806D08020606584F834700120BC
:10077000BDE8F0812068016821F016010160206861
:10078000416921F080014161206C08B9A06C20B161
:100790002068016821F0080101602068016821F0EB
:1007A000010101602068006810F0010F12D000F014
:1007B0004FF9401B052808D920206065032084F8E4
:1007C000350084F83470BDE8F0812068006810F0CE
:1007D000010FECD194F85C003F2101FA00F0B06009
:1007E000012084F8350084F834700020BDE8F081E1
:1007F00090F83510022903D080214165012070470F
:10080000052180F835100068016821F001010160C0
:10081000002070472DE9F84F0022DFF818A2DFF81A
:1008200010924FF0010E03274FF00F08AAF1040BAE
:100830000EFA02FC0B6803EA0C0363457DD10C79C8
:1008400004F00304012C01D0022C14D1856854005B
:1008500007FA04F6B543CE6806FA04F42C43846024
:10086000446824EA0C0C0C79C4F30014944044EA64
:100870000C0CC0F804C0D1F804C037EA0C0C0CD042
:10088000C4684FEA420C07FA0CF5AC438D6805FAD0
:100890000CFC4CEA040CC0F80CC091F804C00CF03D
:1008A000030CBCF1020F12D14FEAD20C00EB8C0406
:1008B000256A4FEA427C4FEADC6C08FA0CF6B54335
:1008C0000E6906FA0CFC4CEA050CC4F820C004685A
:1008D0004FEA420C07FA0CF5AC430D7905F003051D
:1008E00005FA0CFC4CEA040CC0F800C0D1F804C0B6
:1008F0001CF4403F7DD0D9F800C04CF4804CC9F8BE
:1009000000C0D9F800C00CF4804CCDF800C022F033
:10091000030C0CF1804505F59835D5F808C8940707
:10092000240F08FA04F62CEA0606A0F1804CBCF568
:10093000003C64D0A0F1804C00E05AE0BCF5013CE2
:1009400060D0A0F1804CBCF5023C5ED0A0F1804CA0
:10095000BCF5033C5CD0A0F1804CBCF5043C5AD003
:10096000A0F1804CBCF5053C58D0A0F1804CBCF502
:10097000063C56D0A0F1804CBCF5073C54D04FF05B
:10098000080C0CFA04FC4CEA060CC5F808C8DAF8A6
:1009900000C02CEA030C4C6814F4801F01D04CEA10
:1009A000030CCAF800C0244CD4F800C02CEA030C95
:1009B0004D6815F4001F01D04CEA030CC4F800C0C8
:1009C000DBF800C02CEA030C4C6814F4003F01D0A3
:1009D0004CEA030CCBF800C0184CD4F800C02CEA49
:1009E000030C4D6815F4803F01D04CEA030CC4F8A9
:1009F00000C0521C102AFFF41BAFBDE8F88F4FF067
:100A0000000CBEE74FF0010CBBE74FF0020CB8E75B
:100A10004FF0030CB5E74FF0040CB2E74FF0050CB4
:100A2000AFE74FF0060CACE74FF0070CA9E700006A
:100A300044380240083C01400C3C0140003C01406D
:100A4000002A01D08161704709048161704700006C
:100A500001488068704700003C000020024881681F
:100A600002781144816070473C00002010B50B48AB
:100A7000016841F400710160016841F48061016026
:100A8000016841F480710160032000F085F80020C6
:100A900000F006F800F026F8002010BD003C0240EF
:100AA00070B504460D4D4FF47A712878B1FBF0F023
:100AB0000B490968B1FBF0F000F0DCFB08B1012044
:100AC00070BD102C07D200222146501E00F030F8D5
:100AD0006C60002070BD012070BD00003C00002053
:100AE000380000200A4808B5016841F480410160DF
:100AF000006800F4804000900548001F016841F044
:100B000080510160006800F08050009008BD000036
:100B10004438024000280ADB00F01F01012202FADB
:100B200001F14009800000F1E020C0F80011704799
:100B300010B4184B1B68C3F30223C3F1070CBCF1BC
:100B4000040F01D94FF0040C1C1D072C01D2002307
:100B500000E0DB1E012404FA0CFCACF1010C0CEAF1
:100B60000101994004FA03F35B1E1A401143002867
:100B700006DB00F1E020090180F8001410BC70478A
:100B800000F00F0000F1E020090180F8141D10BCF6
:100B9000704700000CED00E000F00700064A116805
:100BA0004FF6FF03194041EA002040F0FD7040F08D
:100BB00080601060704700000CED00E02DE9F04708
:100BC00004460D46002C13D0DFF85491D9F80000EC
:100BD000EFB200F00700A8420DD289F80070D9F8F2
:100BE000000000F00700A84205D00120BDE8F08712
:100BF0000120BDE8F08720684A4E10F0020F14D0A3
:100C000010F0040F03D0306840F4E05030602078DA
:100C100010F0080F03D0306840F460403060306856
:100C2000A16820F0F00008433060207810F0010F38
:100C30003ED060683C49012808D002280DD0032826
:100C40000BD0096811F0020F28D00AE0096811F4EE
:100C5000003F06D10120BDE8F087096811F0007F50
:100C600019D0316821F0030108433060FFF7F0FE2E
:100C700080463068616800F00C00B0EB810F17D03F
:100C800041F2883AFFF7E4FEA0EB0800504508D98E
:100C90000320BDE8F0870120BDE8F0870120BDE812
:100CA000F0873068616800F00C00B0EB810FE9D18B
:100CB000D9F8000000F00700A8420AD989F80070AE
:100CC000D9F8000000F00700A84202D00120BDE8DA
:100CD000F087207810F0040F05D03068E16820F428
:100CE000E05008433060207810F0080F06D03068DC
:100CF000216920F4604040EAC100306000F042F811
:100D000031680A4AC1F30311515CC84008490860C0
:100D100008480068FFF7C4FE0020BDE8F087000027
:100D2000003C02400838024000380240F021000830
:100D30003800002040000020014800687047000093
:100D40003800002000B5FFF7F7FF04490968044A9E
:100D5000C1F38221515CC84000BD00000838024048
:100D60000022000800B5FFF7E7FF04490968044ABC
:100D7000C1F34231515CC84000BD00000838024058
:100D80000022000810B51748006810F00C01164842
:100D900016D04310042912D0082911D1134C216810
:100DA00001F03F02216811F4800F0AD02068C0F3DF
:100DB0008810A0FB03010023FFF704FA09E018469E
:100DC00010BD21680023C1F38811A1FB0001FFF7CA
:100DD000F9F92168C1F30141491C4900B0FBF1F068
:100DE00010BD0000083802400024F400043802401E
:100DF0002DE9F84F0446002C12D02078FB4E10F05D
:100E0000010FA6F1040563D0301D016801F00C014B
:100E100004290CD0006800F00C00082803D010E072
:100E20000120BDE8F88F306810F4800F09D02868E1
:100E300010F4003F4CD06068002849D10120BDE883
:100E4000F88F6068B0F5803F14D0B0F5A02F16D0B1
:100E5000286820F480302860286820F480202860EA
:100E6000606810B3FFF7F4FD0746286810F4003FF0
:100E70000ED02DE0286840F480302860F0E7286824
:100E800040F480202860286840F480302860E7E73C
:100E9000FFF7DEFDC01B642802D90320BDE8F88FF0
:100EA000286810F4003FF3D012E0FFF7D1FD0746A9
:100EB000286810F4003F0BD0FFF7CAFDC01B642860
:100EC00002D90320BDE8F88F286810F4003FF3D161
:100ED0002078C74F10F0020F4FF0000957D0C548D7
:100EE000016811F00C0F14D0006800F00C00082805
:100EF00003D1306810F4800F0BD0E06880B301207C
:100F00003860FFF7A5FD8046286810F0020F12D068
:100F10001EE0286810F0020F05D0E068012802D01A
:100F20000120BDE8F88F2868216920F0F80040EA28
:100F3000C10028602BE0FFF78BFDA0EB0800022822
:100F400002D90320BDE8F88F286810F0020FF2D014
:100F50002868216920F0F80040EAC100286016E006
:100F6000FFE7C7F80090FFF773FD8046286810F090
:100F7000020F0CD0FFF76CFDA0EB0800022802D98D
:100F80000320BDE8F88F286810F0020FF2D1207816
:100F900010F0080F35D09848DFF860A26169C1B140
:100FA00001210160FFF754FD8046DAF8000010F0DF
:100FB000020F26D1FFF74CFDA0EB0800022802D952
:100FC0000320BDE8F88FDAF8000010F0020FF1D02E
:100FD00017E0C0F80090FFF73BFD8046DAF800000C
:100FE00010F0020F0DD0FFF733FDA0EB0800022830
:100FF00002D90320BDE8F88FDAF8000010F0020FE4
:10100000F1D1207810F0040F71D04FF000087C4827
:10101000006810F0805F0AD17948016841F0805182
:101020000160006800F0805000904FF00108DFF888
:10103000D4B1DBF8000010F4807F1BD1DBF8000096
:1010400040F48070CBF80000FFF702FD8246DBF829
:10105000000010F4807F0DD1FFF7FAFCA0EB0A002E
:10106000022802D90320BDE8F88FDBF8000010F455
:10107000807FF1D0A068DFF890B1012818D0052852
:101080001DD0DBF8000020F00100CBF80000DBF8F9
:10109000000020F00400CBF80000A06840B3FFF788
:1010A000D7FC8246DBF8000010F0020F14D03EE0BF
:1010B000DBF8000040F00100CBF80000EDE7DBF8C2
:1010C000000040F00400CBF80000DBF8000040F026
:1010D0000100CBF80000E0E7FFF7BAFCA0EB0A0143
:1010E00041F28830814204D90320BDE8F88F26E020
:1010F00005E0DBF8000010F0020FEDD017E0FFF77D
:10110000A7FC8246DBF8000010F0020F0FD0FFF7BB
:101110009FFCA0EB0A0141F28830814202D90320F2
:10112000BDE8F88FDBF8000010F0020FEFD1B8F146
:10113000010F04D13248016821F080510160A0699B
:10114000F0B32C4909684FF0FF3801F00C01082971
:1011500066D0022810D0C7F86090FFF779FC0446EB
:10116000286810F0007F2BD0FFF772FC001B0228CC
:1011700051D90320BDE8F88FC7F86090FFF768FCED
:101180008146286810F0007F0CD0FFF761FCA0EBCF
:101190000900022802D90320BDE8F88F286810F062
:1011A000007FF2D1216AE069A26A0843616A08EB14
:1011B0005202890141EA0241084394F82C1000E0F0
:1011C00055E040EA0160306001203866FFF740FCDE
:1011D0000446286810F0007F49D1FFF739FC001B56
:1011E000022813D90320BDE8F88F0000043802401C
:1011F0000000474208380240800E474274380240DF
:10120000403802400070004070380240286810F0FA
:10121000007FE2D02BE0286810F0007FA4D126E008
:10122000012822D03068E26900F4800191421AD18D
:10123000226A00F03F01914215D147F6C071626AFF
:101240000140B1EB821F0ED1A26A00F4403108EBDD
:101250005202B1EB024F06D194F82C1000F07060EE
:10126000B0EB016F03D00120BDE70120BBE70020F8
:10127000B9E70000401EB0F1807F01D30120704724
:101280004FF0E0214861044AF0201070002088618E
:10129000072008610020704723ED00E07047704789
:1012A000F8B5044622681068D168536900F00F0C45
:1012B000BCF1000F0AD110F0200F07D011F0200F61
:1012C00004D02046BDE8F84000F0B3BC0025BCF1D6
:1012D000000F75D003F0010C01F490765CEA06066D
:1012E0006ED010F0010F06D011F4807F03D0626C35
:1012F00042F00102626410F0040F06D013F0010FF7
:1013000003D0626C42F00202626410F0020F06D059
:1013100013F0010F03D0626C42F00402626410F01B
:10132000080F08D001F0200252EA0C0203D0626CD0
:1013300042F008026264626C002A35D010F0200F7F
:1013400005D011F0200F02D0204600F072FC20687A
:101350004069C0F38010616C11F0080F00D148B3F0
:10136000204600F032FC2068406910F0400F1CD08D
:101370002068143050E8001F21F0400140E80012BE
:10138000002AF5D1E06B60B164490165E06BFFF7BD
:101390002FFA002808D0E06B016D01B0BDE8F040E5
:1013A00008472046FFF77BFFF8BD2046FFF777FF91
:1013B000F8BD05E0FFE72046FFF771FF6564F8BD63
:1013C000236B012B7ED110F0100F7BD011F0100F8A
:1013D00078D010685068009050694FF0200310F0EA
:1013E000400F4FF0020650D0E26B1068406880B2A8
:1013F000F0B3A18D81423CD9E085D069B0F5807F02
:101400002DD020680C3050E8001F21F4807140E896
:101410000012002AF5D12068143050E8001F21F096
:10142000010140E80012002AF5D12068143050E88C
:10143000001F21F0400140E80012002AF5D184F895
:101440004230256320680C3050E8001F21F0100165
:1014500040E80012002AF5D1E06BFFF778F96663E7
:10146000A08DE18D401A81B22046FFF717FFF8BD2D
:10147000FFE7A18D8142FAD1D069B0F5807FF6D126
:1014800066632046FFF70AFFF8BDA08DE18D401A84
:1014900081B2E08D0028F7D00029F5D020680C300B
:1014A00050E8002F22F4907240E8002CBCF1000FAD
:1014B000F4D12068143050E8002F22F0010240E8F7
:1014C000002C00E014E0BCF1000FF2D184F84230AF
:1014D000256320680C3050E8002F22F0100240E80D
:1014E0000023002BF5D166632046FFF7D7FEF8BD39
:1014F00010F0800F07D011F0800F04D02046BDE817
:10150000F84000F095BC10F0400FF0D011F0400F03
:10151000EDD02046BDE8F84000F07EBBBD1B0008C2
:1015200070B50446002C04D094F84100002510B199
:1015300006E0012070BD84F84050204600F024F8F9
:10154000242084F841002068C16821F40051C16062
:10155000204600F0D3FB2068016921F4904101612D
:101560002068416921F02A0141612068C16841F485
:101570000051C1606564202084F8410084F8420075
:101580006563002070BD000070B586B0044614216C
:101590006846FEF74FFE2B4E226800212A480223A0
:1015A00003240725B24222D1274A1432166846F096
:1015B00010061660126802F010020592026842F0EE
:1015C00001020260006802AA00F00100059082E8B2
:1015D00032006002CDE9000369461C48FFF71AF9A2
:1015E000002211462520FFF7A3FA252025E0184EFA
:1015F000B24224D1144A1032166846F4802616608E
:10160000126802F480220592026842F0020202602F
:10161000006802AA00F00200059082E832004FF450
:101620004060CDE9000369460A48FFF7F3F800225D
:1016300011462720FFF77CFA2720FFF76BFA06B048
:1016400070BD000000100140303802400000024030
:10165000004800400004024090F84230202B01D0A6
:101660000220704721B11AB10023036300F0C4BB0C
:1016700001207047034A0168914201D1FFF720B869
:1016800070470000001001402DE9F84304460E4663
:1016900015461F4694F84100202802D00220BDE8DC
:1016A000F8837EB175B100206064212084F8410088
:1016B000FFF7CEF98146A584E584A068B0F5805F88
:1016C00003D004E00120BDE8F883206990B13546DD
:1016D0000026E08C4FF02008C8B14B460022802144
:1016E0002046009700F0D3FB30B184F841800320FE
:1016F000BDE8F8830025ECE7B5B12168287848609B
:101700006D1CE08C401EE084E08C0028E5D14B4647
:10171000002240212046009700F0B9FB58B184F820
:1017200041800320BDE8F88330882168C0F30800B9
:101730004860B61CE5E784F841800020BDE8F883E6
:101740007047FEE770B5050018D02BA10020FEF70A
:101750008BFD040014D029A12846FEF776FD002851
:1017600010D028A12846FEF770FD002829D0294670
:1017700025A000BF00F0E0FB002070BD28A01AE00B
:1017800031A018E039A12046FEF75FFD384D28B1A1
:1017900038A12046FEF759FD38B10FE000220421A0
:1017A0002846FFF74DF934A005E001220421284620
:1017B000FFF746F936A000F0BFFBDDE721463AA06F
:1017C000D8E72AA12046FEF740FD3C4D60B129A193
:1017D0002046FEF73AFD0028F0D1012220212846BC
:1017E000FFF72EF936A0E6E7002220212846FFF772
:1017F00027F939A0DFE7000020000000626C756562
:101800000000000072656400556E6B6E6F776E208D
:101810004C454420636F6C6F723A2025730D0A00AB
:101820004C45442075736167653A206C6564205BA4
:10183000626C75652F7265645D205B6F6E2F6F66DD
:10184000665D0D0A00000000506C656173652073D1
:10185000706563696679204C4544207374617465D2
:10186000205B6F6E2F6F66665D0D0A006F6E000065
:10187000000402406F666600426C7565204C45446A
:10188000207475726E6564206F6E0D0A0000000092
:10189000426C7565204C4544207475726E656420F9
:1018A0006F66660D0A000000496E76616C696420FF
:1018B00073746174653A2025730D0A0000080240B4
:1018C000526564204C4544207475726E6564206FC7
:1018D00066660D0A00000000526564204C454420F5
:1018E0007475726E6564206F6E0D0A00F0B587B076
:1018F00014216846FEF79EFC21480024016841F04F
:1019000004010160016801F004010591016841F0E2
:1019100080010160016801F080010591016841F0DA
:1019200002010160016801F002010591016841F0C6
:10193000010101600068134E00F0010005900122D2
:1019400020213046FFF77CF80F4F01220421384652
:10195000FFF776F8202000900125CDE90154694673
:1019600030460394FEF756FF04200090CDE9015461
:10197000694638460394FEF74DFF07B0F0BD0000FE
:101980003038024000080240000402400C4810B504
:101990000A4901604FF4E1314160002181600C226D
:1019A000C160C0E904128161C161FFF7B9FD00287F
:1019B00003D0BDE81040FEF7C8BE10BD00100140C6
:1019C0004C0000200C4810B50A4901604FF4E13189
:1019D0004160002181600C22C160C0E90412816174
:1019E000C161FFF79DFD002803D0BDE81040FEF760
:1019F000ACBE10BD0048004094000020FEE700008F
:101A000010B54FF480710348FEF714FC0249002022
:101A1000086010BDDC00002004000020C0B00024DD
:101A2000174D184E022708E055F83400806818B1A9
:101A3000804705EBC4000771641C30688442F3DB07
:101A400011A000F079FA002416E000BF05EBC407EE
:101A5000387902280FD155F83400016959B1684628
:101A60008847020007D055F8340001680DA000F047
:101A700063FA03203871641C30688442E3DAE5E7D6
:101A8000DC000020040000200D0A4D6F52544F531B
:101A900020537461727465642E0D0A4D6F52544F59
:101AA000532420004D6F64756C6520272573272013
:101AB0007265706F72746564206572726F723A201D
:101AC00025640A0030B518B10E4B1968202902DBD5
:101AD0004FF0FF3030BD00220B4C07E054F832507D
:101AE000854202D16FF0010030BD521C8A42F5DB05
:101AF00044F8310004EBC10201201071491C0020A0
:101B0000196030BD04000020DC000020FEE77047B3
:101B10007047FEF7A3BF000030B593B03021684690
:101B2000FEF788FB14210CA8FEF784FB1D48002556
:101B3000016841F080510160006800F08050119010
:101B40001948016841F4804101600068022400F4F2
:101B5000804011900120039010200490009406947E
:101B60000820CDE90750A820CDE9090404200B90F6
:101B70006846FFF73DF908B172B6FEE70CA90F20E1
:101B800081E831004FF4A0500F904FF48050109036
:101B900005210CA8FFF712F8002801D072B6FEE765
:101BA00013B030BD40380240007000400248016868
:101BB00041F470010160704788ED00E010B5806B62
:101BC0000021C185FFF76BFB10BD01680C3151E8A6
:101BD000002F22F4907241E80023002BF5D1016818
:101BE000143151E8002F22F0010241E80023002BBC
:101BF000F5D1016B012909D101680C3151E8002FA1
:101C000022F0100241E80023002BF5D1202180F8BA
:101C1000421000210163704710B50168CA6822F0C4
:101C20004002CA60202180F84110FFF789FD0020A2
:101C300010BD08B590F84210222901D0022008BD3D
:101C40008268B2F5805F01D1016929B1816AB2F57C
:101C5000805F1DD052B10BE0816A02685268C2F306
:101C600008020A80816A891C816209E002697AB1EE
:101C70000268526802F07F020A70816A491C816220
:101C8000C18D491E0904090CC18505D0002008BD7D
:101C9000026852680A70F0E70168CA6822F0200200
:101CA000CA600168CA6822F48072CA6001684A6921
:101CB00022F001024A61202180F842100021416394
:101CC000026B012A03D0FFF7D5FC002008BD016399
:101CD00001680C3151E8002F22F0100241E8002386
:101CE000002BF5D101680A6812F0100F02D00A68C3
:101CF00049680091818DFFF7D1FAE6E72DE9F041BF
:101D0000044620680169E26821F4405111430161F1
:101D10002169A068E26908436169114301432068B1
:101D2000C26822F4037222F414421143C160206895
:101D30004169A26921F44071114341612068A0F119
:101D40008041B1F588312ED0A0F18041B1F58A31C2
:101D500029D0FEF7F7FF8446E16900201927254DB9
:101D60003226B1F5004F22D06068830F8200ACFBB1
:101D70000701FEF727FA0146A5FB002040097A4239
:101D8000424301EB820106EB0111A5FB0121490948
:101D900001F0F00202EB001001F00F01084421688D
:101DA0008860BDE8F081FEF7DDFF8446D4E7616816
:101DB0004A1840EB0003ACFB0701FEF703FA0346A9
:101DC000A5FB0010410918460A016FF0180359439A
:101DD00000EB810006EBC000A5FB0010400900F0FD
:101DE000F80102EB410100F0070008442168886017
:101DF000BDE8F0811F85EB5181628285C28500219B
:101E00004164222180F842100169002904D0016850
:101E1000CA6842F48072CA6001684A6942F00102ED
:101E20004A610068C16841F02001C160002070472C
:101E300090F84110212901D0022070478168B1F546
:101E4000805F01D1016961B1016A4A1C02620268C6
:101E500009785160C18C491E0904090CC1840AD05B
:101E600013E0016A02680988C1F308015160016A40
:101E7000891C0162EEE70168CA6822F08002CA602C
:101E80000068C16841F04001C160002070472DE941
:101E9000F8430446089E0D46174698462068006899
:101EA00035EA000028D00020B84232D1B6F1FF3F19
:101EB00027D0FEF7CDFDA0EB0800B0421ED8EEB152
:101EC0002068C16811F0040F1BD0802D19D0402D5F
:101ED00017D0016811F0080F13D000252168096898
:101EE000406800902046FFF770FE0820606484F888
:101EF00040500120BDE8F8830120D5E70320BDE86C
:101F0000F8832068006835EA000005D00020B84258
:101F1000CCD00020BDE8F8830120F8E70148FFF7A6
:101F2000BFB900004C0000200148FFF7B9B900001C
:101F300094000020FEE700000FB4054B10B503A984
:101F4000044A029800F018F810BC5DF814FB000079
:101F5000A52100080000002002E008C8121F08C1E7
:101F6000002AFAD170477047002001E001C1121F1A
:101F7000002AFBD1704700002DE9FF4F8BB09A4635
:101F80000F460446002606E025280BD052460D9940
:101F90009047641C761C20780028F5D10FB030469D
:101FA000BDE8F08F0025A94601227D4900E00543E8
:101FB00014F8013F203B02FA03F00842F7D12078E1
:101FC0002E2817D114F8010F45F004052A280ED049
:101FD0006FF02F022078A0F1300109290AD809EB0F
:101FE000890102EB410100EB0109641CF2E757F89B
:101FF000049B641C20786C280DD004DC4C2812D083
:102000006A2811D104E074280DD07A280CD10AE096
:1020100045F4001507E0617845F48015814202D14E
:10202000641C05F58015641C207869283ED006DC08
:102030000028B3D063280BD0642804D136E073287D
:1020400010D075285CD052460D999047761CA5E0BB
:1020500017F8040B8DF8000000208DF80100E84609
:10206000012003E057F8048B4FF0FF3069074FF071
:10207000000501D40AE06D1C4D450DDA8542FADBFE
:1020800018F805100029F6D106E06D1C8542FCDB2E
:1020900018F805100029F8D12E4404E018F8010BB7
:1020A00052460D9990476D1EF8D277E000200A90B5
:1020B000C5F302504FF00A0B02280CD001CFC11714
:1020C000021E71F100020CDA0023D0EB030063EB77
:1020D00001012D2208E0FF1D27F00707F7E80201A4
:1020E000EEE72A0504D52B228DF82420012203E0F7
:1020F000EA070FD02022F7E70DF12008089218E038
:1021000000200A90C5F302504FF00A0B022803D0BA
:1021100001CF00210022EFE7FF1D27F00707F7E8B6
:102120000201F7E75A460A9BFEF74CF8303208F8EE
:10213000012D50EA0102F5D1ADEB080000F1200BB2
:10214000680701D44FF00109D94502DDA9EB0B0066
:1021500000E000208146002506E009A85246405DC7
:102160000D9990476D1C761C08988542F5DB04E0BC
:10217000302052460D999047761CB9F10001A9F123
:102180000109F5DC05E018F8010B52460D9990475E
:10219000761CBBF10001ABF1010BF4DC641CFAE628
:1021A0000928010013B53223012269460248FFF7CE
:1021B0006BFA00981CBD00004C000020FEF756FC96
:1021C000FFF7AAFCFFF792FBFFF7E0FBFFF7FAFB34
:1021D000FFF716FC0448FFF775FC0448FFF772FC94
:1021E000FFF71CFCFEE70000100000202400002088
:1021F00000000000000000000102030406070809B7
:102200000000000001020304436F6D6D616E6420E5
:102210004C696E6520496E74657266616365200D58
:102220000A000000434C490020272D2D2D2D2D2D77
:102230002D2D2D2D2D2D2D2D2D2D272020272D2DF4
:102240002D2D2D2D2D2D2D2D2D2D2D2D2D2D2720D1
:1022500020272D2D2D2D2D2D2D2D2D2D2D2D2D2DC1
:102260002D2D272020272D2D2D2D2D2D2D2D2D2DC4
:102270002D2D2D2D2D2D272020272D2D2D2D2D2DB4
:102280002D2D2D2D2D2D2D2D2D2D272020272D2DA4
:102290002D2D2D2D2D2D2D2D2D2D2D2D2D2D272081
:1022A0000D0A00002E2D2D2D2D2D2D2D2D2D2D2DFA
:1022B0002D2D2D2D2D2E20202E2D2D2D2D2D2D2D66
:1022C0002D2D2D2D2D2D2D2D2D2E20202E2D2D2D56
:1022D0002D2D2D2D2D2D2D2D2D2D2D2D2D2E202047
:1022E0002E2D2D2D2D2D2D2D2D2D2D2D2D2D2D2D1D
:1022F0002D2E20202E2D2D2D2D2D2D2D2D2D2D2D26
:102300002D2D2D2D2D2E20202E2D2D2D2D2D2D2D15
:102310002D2D2D2D2D2D2D2D2D2E200D0A000000C3
:1023200020202020202020202020202020202020AD
:1023300020202020202020204D756C74692D66758A
:102340006E6374696F6E20446562756720417373B4
:10235000697374616E7420666F722053544D33320A
:102360000D0A00007C20272D2D2D2D2D2D2D2D2DFE
:102370002D2D2D2D2D27207C7C20272D2D2D2D2D15
:102380002D2D2D2D2D2D2D2D2D27207C7C20272D05
:102390002D2D2D2D2D2D2D2D2D2D2D2D2D27207C31
:1023A0007C20272D2D2D2D2D2D2D2D2D2D2D2D2D21
:1023B0002D27207C7C20272D2D2D2D2D2D2D2D2DD5
:1023C0002D2D2D2D2D27207C7C20272D2D2D2D2DC5
:1023D0002D2D2D2D2D2D2D2D2D27207C0D0A00008E
:1023E0007C202E2D2D2D2D2D2D2D2D2D2D2D2D2DDA
:1023F0002D2E207C7C202E2D2D2D2D2D2D2D2D2D87
:102400002D2D2D2D2D2E207C7C202E2D2D2D2D2D76
:102410002D2D2D2D2D2D2D2D2D2E207C7C202E2D66
:102420002D2D2D2D2D2D2D2D2D2D2D2D2D2E207C99
:102430007C202E2D2D2D2D2D2D2D2D2D2D2D2D2D89
:102440002D2E207C7C202E2D2D2D2D2D2D2D2D2D36
:102450002D2D2D2D2D2E207C0D0A00007C207C2082
:10246000202020202020202020202020207C207CB4
:102470007C207C20202020202020202020202020A4
:10248000207C207C7C207C202020202020202020DC
:1024900020202020207C207C7C207C2020202020CC
:1024A0002020202020202020207C207C7C207C20BC
:1024B000202020202020202020202020207C207C64
:1024C0007C207C2020202020202020202020202054
:1024D000207C207C0D0A00007C207C20207C202099
:1024E000205C2F2020207C20207C207C7C207C20D5
:1024F000202F20202E2D2D2E20205C20207C207CA3
:102500007C207C207C5F2F207C207C205C5F7C20DA
:10251000207C207C7C207C20202F20202E2D2D2E06
:1025200020205C20207C207C7C207C20202F2020F0
:102530002E2D2D2E20205C20207C207C7C207C20B9
:102540002020207C207C202020202020207C207C1B
:102550000D0A00007C207C205F5F5F5F2020202030
:102560005F5F5F5F207C207C7C207C2020202020FF
:102570005F5F5F5F20202020207C207C7C207C20EF
:10258000205F5F5F5F5F5F5F5F5F2020207C207C5C
:102590007C207C20202020205F5F5F5F2020202087
:1025A000207C207C7C207C20202020205F5F5F5FBF
:1025B00020202020207C207C7C207C2020205F5F2D
:1025C0005F5F5F2020202020207C207C0D0A0000FF
:1025D0007C207C7C5F2020205C20202F2020205F1E
:1025E0007C7C207C7C207C2020202E27202020200A
:1025F000602E2020207C207C7C207C207C20205F82
:102600002020205F20207C20207C207C7C207C20BF
:1026100020202E2720202020602E2020207C207C9F
:102620007C207C2020202E2720202020602E20208F
:10263000207C207C7C207C20207C5F2020205F7CF4
:1026400020202020207C207C0D0A00007C207C2083
:10265000207C207C5C20202F7C207C20207C207C07
:102660007C207C20207C207C202020207C207C2042
:10267000207C207C7C207C20202020207C207C2032
:1026800020202020207C207C7C207C20207C207C22
:10269000202020207C207C20207C207C7C207C2012
:1026A000207C207C202020207C207C20207C207C02
:1026B0007C207C202020207C207C2020205F20206B
:1026C000207C207C0D0A00007C207C205F7C207C0C
:1026D0005F5C2F5F7C207C5F207C207C7C207C20CA
:1026E000205C2020602D2D2720202F20207C207C86
:1026F0007C207C202020205F7C207C5F20202020EC
:10270000207C207C7C207C20205C2020602D2D27BC
:1027100020202F20207C207C7C207C20205C2020FE
:10272000602D2D2720202F20207C207C7C207C20C9
:1027300020205F7C207C5F5F2F207C20207C207C01
:102740000D0A00007C207C7C5F5F5F5F5F7C7C5FAC
:102750005F5F5F5F7C7C207C7C207C202020602E63
:102760005F5F5F5F2E272020207C207C7C207C20E8
:1027700020207C5F5F5F5F5F7C202020207C207CAE
:102780007C207C202020602E5F5F5F5F2E27202032
:10279000207C207C7C207C202020602E5F5F5F5F7F
:1027A0002E272020207C207C7C207C20207C5F5FCA
:1027B0005F5F5F5F5F5F7C20207C207C0D0A0000F4
:1027C0006C6564205B6E756D6265725D205B6F6E1B
:1027D0002F6F66665D202D204C6564206F706572DA
:1027E0006174696F6E730D0A000000006C6564000F
:1027F00010280008000000204C000000581F0008AE
:102800005C2800084C00002084070000681F0008B6
:1028100000000000000000000001000000000000B7
:102820002422000808220008150300080000000008
:1028300009040008EC270008C02700080000000079
:1028400000000000451700080024F400010000000B
:0C2850001000000000000000000000006C
:040000050800018965
:00000001FF
