:020000040800F2
:1000000000080020A10100081717000803160008C7
:1000100015170008A3040008F927000800000000D5
:10002000000000000000000000000000B9230008EC
:10003000A50400080000000019170008BB230008F1
:10004000BB010008BB010008BB010008BB010008A0
:10005000BB010008BB010008BB010008BB01000890
:10006000BB010008BB010008BB010008BB01000880
:10007000BB010008BB010008BB010008BB01000870
:10008000BB010008BB010008BB010008BB01000860
:10009000BB010008BB010008BB010008BB01000850
:1000A000BB010008BB010008BB010008BB01000840
:1000B000BB010008BB010008BB010008BB01000830
:1000C000BB010008BB010008BB010008BB01000820
:1000D000BB010008E1270008BB010008ED2700086C
:1000E000BB010008BB010008BB010008BB01000800
:1000F000BB010008BB010008BB010008BB010008F0
:10010000BB010008BB010008BB010008BB010008DF
:10011000BB010008BB010008BB010008BB010008CF
:10012000BB010008BB010008BB010008BB010008BF
:10013000BB010008BB010008BB010008BB010008AF
:10014000BB010008BB010008BB010008BB0100089F
:10015000BB010008BB010008BB010008BB0100088F
:10016000BB010008BB010008BB010008BB0100087F
:10017000BB010008BB010008BB0100080000000033
:10018000BB010008BB010008DFF810D000F016F931
:1001900000480047D52A0008AFF30080000800207F
:1001A0000648804706480047FEE7FEE7FEE7FEE711
:1001B000FEE7FEE7FEE7FEE7FEE7FEE75524000860
:1001C000890100082DE9F05F0546002092469B4614
:1001D00088460646814640241BE02846414647465D
:1001E000224600F0A3F853465A46C01A914110D354
:1001F00011461846224600F08AF82D1A67EB0108CE
:100200004F4622460120002100F081F817EB00093B
:100210004E41201EA4F10104DFDC484631462A4647
:100220004346BDE8F09FD2B201E000F8012B491E21
:10023000FBD270470022F6E710B513460A46044683
:100240001946FFF7F0FF204610BD30B505462A4697
:100250000B4612F8010B13F8014B08B1A042F8D07D
:100260001CB1002802D06D1CF1E7284630BD10B546
:10027000044604E00B7800F8013B03B1491C521E10
:10028000F8D2204610BD421C10F8011B0029FBD1FA
:10029000801A704710B5002200E0521C835C8C5C11
:1002A000A34201D1002BF8D1D8B2E1B2401A10BD5F
:1002B00070B50F4D00B92868002412E00A4602E02C
:1002C0009E4203D0521C1378002BF9D1DAB222439C
:1002D00005D02BB124B1002100F8011B04E0044635
:1002E000401C0678002EE9D12860204670BD000031
:1002F0003000002070B5064602F0AAFA04680546F0
:100300000A220021304600F021F82C6070BD202A1E
:1003100004DB203A00FA02F1002070479140C2F15C
:10032000200320FA03F3194390407047202A04DB8E
:10033000203A21FA02F00021704721FA02F3D0405E
:10034000C2F1200291400843194670472DE9F04759
:1003500091460F4680460446002614F8015B2DB1F5
:1003600000F03EF80068405DC007F6D12B2D02D0AA
:100370002D2D18D0641E4A463946204600F034F828
:1003800027B13968A14201D1C7F8008071054FF04B
:1003900002040BD54042002803DD02F059FA046044
:1003A000A007BDE8F08746F48066E4E70028F8DAA5
:1003B00002F04EFA04606FF00040F2E7064C074D81
:1003C00006E0E06840F0010394E807009847103425
:1003D000AC42F6D3FFF7DCFE7C3200089C3200080A
:1003E00000487047882C00082DE9F05F82460078AD
:1003F000002715468B460AF10104B946302801D082
:100400009DB113E014F8010B0127782803D0582878
:1004100001D045B10AE00DB1102D07D100271025FC
:1004200014F8010B02E0082500E00A250026B0467A
:100430000EE005FB080005FB06F1012701EB104665
:100440001FFA80F8B6F5803F00D3B94614F8010BC7
:10045000294600F018F80028EBDABBF1000F05D0B0
:100460000FB1641E00E05446CBF80040B9F1000F14
:1004700006D002F0EDF902210160C81EBDE8F09F30
:1004800048EA0640FAE73A2800D2303820F0200245
:10049000412A01D3A2F13700884201D34FF0FF3047
:1004A0007047FEE7704772B6FEE72DE9F04104465B
:1004B000A66D00F08FF9054694F835000027022854
:1004C00006D08020606584F834700120BDE8F0819A
:1004D0002068016821F0160101602068416921F05F
:1004E00080014161206C08B9A06C20B120680168CE
:1004F00021F0080101602068016821F0010101601C
:100500002068006810F0010F12D000F063F9401B62
:10051000052808D920206065032084F8350084F878
:100520003470BDE8F0812068006810F0010FECD154
:1005300094F85C003F2101FA00F0B060012084F8DB
:10054000350084F834700020BDE8F08190F8351053
:10055000022903D08021416501207047052180F8E0
:1005600035100068016821F001010160002070472A
:1005700070B5044600F02EF90546B4F1FF3F02D0F5
:1005800004480078044400F025F9401BA042FAD347
:1005900070BD0000240000202DE9F84F0022DFF894
:1005A00018A2DFF810924FF0010E03274FF00F084A
:1005B000AAF1040B0EFA02FC0B6803EA0C03634574
:1005C0007DD10C7904F00304012C01D0022C14D14C
:1005D0008568540007FA04F6B543CE6806FA04F4B9
:1005E0002C438460446824EA0C0C0C79C4F3001496
:1005F000944044EA0C0CC0F804C0D1F804C037EAB7
:100600000C0C0CD0C4684FEA420C07FA0CF5AC4352
:100610008D6805FA0CFC4CEA040CC0F80CC091F88B
:1006200004C00CF0030CBCF1020F12D14FEAD20C43
:1006300000EB8C04256A4FEA427C4FEADC6C08FA36
:100640000CF6B5430E6906FA0CFC4CEA050CC4F82E
:1006500020C004684FEA420C07FA0CF5AC430D7950
:1006600005F0030505FA0CFC4CEA040CC0F800C0C8
:10067000D1F804C01CF4403F7DD0D9F800C04CF440
:10068000804CC9F800C0D9F800C00CF4804CCDF8FB
:1006900000C022F0030C0CF1804505F59835D5F823
:1006A00008C89407240F08FA04F62CEA0606A0F1FD
:1006B000804CBCF5003C64D0A0F1804C00E05AE0D6
:1006C000BCF5013C60D0A0F1804CBCF5023C5ED092
:1006D000A0F1804CBCF5033C5CD0A0F1804CBCF593
:1006E000043C5AD0A0F1804CBCF5053C58D0A0F198
:1006F000804CBCF5063C56D0A0F1804CBCF5073CC4
:1007000054D04FF0080C0CFA04FC4CEA060CC5F867
:1007100008C8DAF800C02CEA030C4C6814F4801FF7
:1007200001D04CEA030CCAF800C0244CD4F800C035
:100730002CEA030C4D6815F4001F01D04CEA030CA1
:10074000C4F800C0DBF800C02CEA030C4C6814F4B9
:10075000003F01D04CEA030CCBF800C0184CD4F891
:1007600000C02CEA030C4D6815F4803F01D04CEA20
:10077000030CC4F800C0521C102AFFF41BAFBDE8E4
:10078000F88F4FF0000CBEE74FF0010CBBE74FF0C5
:10079000020CB8E74FF0030CB5E74FF0040CB2E7DA
:1007A0004FF0050CAFE74FF0060CACE74FF0070C2D
:1007B000A9E7000044380240083C01400C3C0140DD
:1007C000003C0140002A01D0816170470904816129
:1007D0007047000001488068704700002400002036
:1007E000024881680278114481607047240000202B
:1007F00010B50B48016841F400710160016841F4D3
:1008000080610160016841F480710160032000F0A3
:1008100085F8002000F006F800F026F8002010BD52
:10082000003C024070B504460D4D4FF47A712878B3
:10083000B1FBF0F00B490968B1FBF0F000F0DCFB14
:1008400008B1012070BD102C07D200222146501E95
:1008500000F030F86C60002070BD012070BD000019
:1008600024000020200000200A4808B5016841F457
:1008700080410160006800F4804000900548001F3E
:10088000016841F080510160006800F080500090E4
:1008900008BD00004438024000280ADB00F01F01B8
:1008A000012202FA01F14009800000F1E020C0F8C5
:1008B0000011704710B4184B1B68C3F30223C3F137
:1008C000070CBCF1040F01D94FF0040C1C1D072CC0
:1008D00001D2002300E0DB1E012404FA0CFCACF181
:1008E000010C0CEA0101994004FA03F35B1E1A4063
:1008F0001143002806DB00F1E020090180F8001414
:1009000010BC704700F00F0000F1E020090180F8F2
:10091000141D10BC704700000CED00E000F0070053
:10092000064A11684FF6FF03194041EA002040F0E3
:10093000FD7040F080601060704700000CED00E03A
:100940002DE9F04704460D46002C13D0DFF85491F2
:10095000D9F80000EFB200F00700A8420DD289F8E4
:100960000070D9F8000000F00700A84205D001206F
:10097000BDE8F0870120BDE8F08720684A4E10F0FE
:10098000020F14D010F0040F03D0306840F4E05090
:100990003060207810F0080F03D0306840F46040D9
:1009A00030603068A16820F0F000084330602078A3
:1009B00010F0010F3ED060683C49012808D00228A1
:1009C0000DD003280BD0096811F0020F28D00AE0DF
:1009D000096811F4003F06D10120BDE8F0870968DD
:1009E00011F0007F19D0316821F003010843306015
:1009F000FFF7F0FE80463068616800F00C00B0EB55
:100A0000810F17D041F2883AFFF7E4FEA0EB08000F
:100A1000504508D90320BDE8F0870120BDE8F087E4
:100A20000120BDE8F0873068616800F00C00B0EB91
:100A3000810FE9D1D9F8000000F00700A8420AD9D7
:100A400089F80070D9F8000000F00700A84202D031
:100A50000120BDE8F087207810F0040F05D0306841
:100A6000E16820F4E05008433060207810F0080F6F
:100A700006D03068216920F4604040EAC10030604F
:100A800000F042F831680A4AC1F30311515CC840D2
:100A90000849086008480068FFF7C4FE0020BDE868
:100AA000F0870000003C0240083802400038024055
:100AB000EC2B0008200000202800002001480068DE
:100AC000704700002000002000B5FFF7F7FF044941
:100AD0000968044AC1F38221515CC84000BD00008E
:100AE00008380240FC2B000800B5FFF7E7FF044977
:100AF0000968044AC1F34231515CC84000BD00009E
:100B000008380240FC2B000810B51748006810F0A8
:100B10000C01164816D04310042912D0082911D10F
:100B2000134C216801F03F02216811F4800F0AD0B4
:100B30002068C0F38810A0FB03010023FFF742FBED
:100B400009E0184610BD21680023C1F38811A1FBFC
:100B50000001FFF737FB2168C1F30141491C49003F
:100B6000B0FBF1F010BD0000083802400024F40092
:100B7000043802402DE9F84F0446002C12D02078AA
:100B8000FB4E10F0010FA6F1040563D0301D016883
:100B900001F00C0104290CD0006800F00C000828BA
:100BA00003D010E00120BDE8F88F306810F4800F0A
:100BB00009D0286810F4003F4CD06068002849D163
:100BC0000120BDE8F88F6068B0F5803F14D0B0F523
:100BD000A02F16D0286820F480302860286820F4E0
:100BE00080202860606810B3FFF7F4FD074628688E
:100BF00010F4003F0ED02DE0286840F480302860CB
:100C0000F0E7286840F480202860286840F48030AD
:100C10002860E7E7FFF7DEFDC01B642802D9032048
:100C2000BDE8F88F286810F4003FF3D012E0FFF71A
:100C3000D1FD0746286810F4003F0BD0FFF7CAFD2E
:100C4000C01B642802D90320BDE8F88F286810F47F
:100C5000003FF3D12078C74F10F0020F4FF000098A
:100C600057D0C548016811F00C0F14D0006800F08F
:100C70000C00082803D1306810F4800F0BD0E06816
:100C800080B301203860FFF7A5FD8046286810F08A
:100C9000020F12D01EE0286810F0020F05D0E068A5
:100CA000012802D00120BDE8F88F2868216920F0D2
:100CB000F80040EAC10028602BE0FFF78BFDA0EBB5
:100CC0000800022802D90320BDE8F88F286810F038
:100CD000020FF2D02868216920F0F80040EAC10034
:100CE000286016E0FFE7C7F80090FFF773FD804625
:100CF000286810F0020F0CD0FFF76CFDA0EB080085
:100D0000022802D90320BDE8F88F286810F0020FEE
:100D1000F2D1207810F0080F35D09848DFF860A2A3
:100D20006169C1B101210160FFF754FD8046DAF825
:100D3000000010F0020F26D1FFF74CFDA0EB0800D9
:100D4000022802D90320BDE8F88FDAF8000010F07D
:100D5000020FF1D017E0C0F80090FFF73BFD80468E
:100D6000DAF8000010F0020F0DD0FFF733FDA0EB12
:100D70000800022802D90320BDE8F88FDAF8000045
:100D800010F0020FF1D1207810F0040F71D04FF065
:100D900000087C48006810F0805F0AD1794801683B
:100DA00041F080510160006800F0805000904FF0E9
:100DB0000108DFF8D4B1DBF8000010F4807F1BD10C
:100DC000DBF8000040F48070CBF80000FFF702FD74
:100DD0008246DBF8000010F4807F0DD1FFF7FAFCAB
:100DE000A0EB0A00022802D90320BDE8F88FDBF847
:100DF000000010F4807FF1D0A068DFF890B10128E6
:100E000018D005281DD0DBF8000020F00100CBF839
:100E10000000DBF8000020F00400CBF80000A06820
:100E200040B3FFF7D7FC8246DBF8000010F0020F5A
:100E300014D03EE0DBF8000040F00100CBF80000E9
:100E4000EDE7DBF8000040F00400CBF80000DBF831
:100E5000000040F00100CBF80000E0E7FFF7BAFC2B
:100E6000A0EB0A0141F28830814204D90320BDE899
:100E7000F88F26E005E0DBF8000010F0020FEDD05F
:100E800017E0FFF7A7FC8246DBF8000010F0020F26
:100E90000FD0FFF79FFCA0EB0A0141F2883081429E
:100EA00002D90320BDE8F88FDBF8000010F0020F34
:100EB000EFD1B8F1010F04D13248016821F080511F
:100EC0000160A069F0B32C4909684FF0FF3801F0C8
:100ED0000C01082966D0022810D0C7F86090FFF7EF
:100EE00079FC0446286810F0007F2BD0FFF772FCD5
:100EF000001B022851D90320BDE8F88FC7F8609085
:100F0000FFF768FC8146286810F0007F0CD0FFF7DF
:100F100061FCA0EB0900022802D90320BDE8F88F8C
:100F2000286810F0007FF2D1216AE069A26A0843C4
:100F3000616A08EB5202890141EA0241084394F8D0
:100F40002C1000E055E040EA016030600120386676
:100F5000FFF740FC0446286810F0007F49D1FFF7F6
:100F600039FC001B022813D90320BDE8F88F0000CC
:100F7000043802400000474208380240800E4742D1
:100F8000743802404038024000700040703802401F
:100F9000286810F0007FE2D02BE0286810F0007F76
:100FA000A4D126E0012822D03068E26900F4800153
:100FB00091421AD1226A00F03F01914215D147F6C1
:100FC000C071626A0140B1EB821F0ED1A26A00F4C7
:100FD000403108EB5202B1EB024F06D194F82C10CD
:100FE00000F07060B0EB016F03D00120BDE701207D
:100FF000BBE70020B9E70000401EB0F1807F01D3BD
:10100000012070474FF0E0214861044AF020107041
:1010100000208861072008610020704723ED00E070
:1010200070477047F8B5044622681068D168536964
:1010300000F00F0CBCF1000F0AD110F0200F07D008
:1010400011F0200F04D02046BDE8F84001F053BA5B
:101050000025BCF1000F75D003F0010C01F490766F
:101060005CEA06066ED010F0010F06D011F4807F06
:1010700003D0626C42F00102626410F0040F06D0EB
:1010800013F0010F03D0626C42F00202626410F0B0
:10109000020F06D013F0010F03D0626C42F004027D
:1010A000626410F0080F08D001F0200252EA0C022E
:1010B00003D0626C42F008026264626C002A35D090
:1010C00010F0200F05D011F0200F02D0204601F0C3
:1010D00012FA20684069C0F38010616C11F0080FAB
:1010E00000D148B3204601F0D2F92068406910F0E1
:1010F000400F1CD02068143050E8001F21F0400140
:1011000040E80012002AF5D1E06B60B16449016546
:10111000E06BFFF71BFA002808D0E06B016D01B00F
:10112000BDE8F04008472046FFF77BFFF8BD2046AA
:10113000FFF777FFF8BD05E0FFE72046FFF771FFF7
:101140006564F8BD236B012B7ED110F0100F7BD0AE
:1011500011F0100F78D010685068009050694FF06F
:10116000200310F0400F4FF0020650D0E26B1068E1
:10117000406880B2F0B3A18D81423CD9E085D0694E
:10118000B0F5807F2DD020680C3050E8001F21F48E
:10119000807140E80012002AF5D12068143050E830
:1011A000001F21F0010140E80012002AF5D120685B
:1011B000143050E8001F21F0400140E80012002ADE
:1011C000F5D184F84230256320680C3050E8001FC8
:1011D00021F0100140E80012002AF5D1E06BFFF782
:1011E00064F96663A08DE18D401A81B22046FFF755
:1011F00017FFF8BDFFE7A18D8142FAD1D069B0F5A4
:10120000807FF6D166632046FFF70AFFF8BDA08D08
:10121000E18D401A81B2E08D0028F7D00029F5D089
:1012200020680C3050E8002F22F4907240E8002C27
:10123000BCF1000FF4D12068143050E8002F22F0E8
:10124000010240E8002C00E014E0BCF1000FF2D1F4
:1012500084F84230256320680C3050E8002F22F0DB
:10126000100240E80023002BF5D166632046FFF70B
:10127000D7FEF8BD10F0800F07D011F0800F04D01A
:101280002046BDE8F84001F035BA10F0400FF0D02C
:1012900011F0400FEDD02046BDE8F84001F01EB936
:1012A0008124000870B50446002C04D094F8410055
:1012B000002510B106E0012070BD84F840502046A2
:1012C00000F024F8242084F841002068C16821F44B
:1012D0000051C160204601F073F92068016921F4D2
:1012E000904101612068416921F02A014161206833
:1012F000C16841F40051C1606564202084F8410058
:1013000084F842006563002070BD000070B586B0AF
:10131000044614216846FEF78DFF2B4E22680021FB
:101320002A48022303240725B24222D1274A143235
:10133000166846F010061660126802F01002059258
:10134000026842F001020260006802AA00F0010097
:10135000059082E832006002CDE9000369461C482E
:10136000FFF71AF9002211462520FFF7A3FA2520DE
:1013700025E0184EB24224D1144A1032166846F4C1
:1013800080261660126802F480220592026842F0FC
:1013900002020260006802AA00F00200059082E8E2
:1013A00032004FF44060CDE9000369460A48FFF778
:1013B000F3F8002211462720FFF77CFA2720FFF7D9
:1013C0006BFA06B070BD00000010014030380240DA
:1013D00000000240004800400004024090F8423003
:1013E000202B01D00220704721B11AB100230363E2
:1013F00001F064B90120704770B5006839490025D3
:10140000394C88422ED139480068A0600122611D04
:101410003748FFF7E3FF6079364AA0F120015E29E3
:1014200013D90D2811D00A280FD0082801D07F2801
:1014300057D12079002854D0401EC0B220711554D5
:10144000BDE870402CA001F0D9B921793223505465
:10145000491C2171BDE8704023490122491D2448DF
:1014600000F072B8254988423BD12549207862793D
:101470000A54401CC0B220700A2A01D0FF2828D389
:101480000D541F491FA001F0B9F922A11C48FEF715
:10149000DCFE012608B166701AE022A11848FEF7AA
:1014A000D4FE08B1657013E020A11548FEF7CDFE0B
:1014B00008B1A6700CE01FA11148FEF7C6FE08B1E6
:1014C000A57004E01DA10E48FEF7BFFE00B1E57057
:1014D0002570BDE8704004490122491D1948FFF7F5
:1014E0007DBF70BD00100140000000202C000020D6
:1014F0006C0300207800002008200800004800400D
:101500006C0200200D0A455350383236363A2025F9
:10151000730000005749464920434F4E4E454354FF
:10152000454400005749464920444953434F4E4ED5
:1015300045435400434C4F53454400004552524FDD
:1015400052000000B40300202DE9F84304460E4683
:1015500015461F4694F84100202802D00220BDE81D
:10156000F8837EB175B100206064212084F84100C9
:10157000FFF730F98146A584E584A068B0F5805F67
:1015800003D004E00120BDE8F883206990B135461E
:101590000026E08C4FF02008C8B14B460022802185
:1015A0002046009701F0D5F830B184F8418003203F
:1015B000BDE8F8830025ECE7B5B1216828784860DC
:1015C0006D1CE08C401EE084E08C0028E5D14B4689
:1015D000002240212046009701F0BBF858B184F862
:1015E00041800320BDE8F88330882168C0F30800FB
:1015F0004860B61CE5E784F841800020BDE8F88328
:101600007047FEE7F0B587B014216846FEF712FE7A
:1016100021480024016841F004010160016801F0E3
:1016200004010591016841F080010160016801F049
:1016300080010591016841F002010160016801F03B
:1016400002010591016841F0010101600068134E3B
:1016500000F001000590012220213046FFF7B2F88A
:101660000F4F012204213846FFF7ACF820200090EC
:101670000125CDE90154694630460394FEF78CFFFD
:1016800004200090CDE90154694638460394FEF7E2
:1016900083FF07B0F0BD0000303802400008024070
:1016A000000402400C4810B50A4901604FF4E131D2
:1016B0004160002181600C22C160C0E90412816197
:1016C000C161FFF7EFFD002803D0BDE81040FEF731
:1016D000EABE10BD001001406C0300200C4810B59C
:1016E0000A4901604FF4E1314160002181600C2220
:1016F000C160C0E904128161C161FFF7D3FD002818
:1017000003D0BDE81040FEF7CEBE10BD004800403B
:10171000B4030020FEE7FEE7704700002DE9F0412A
:101720007448C0B00168744CA268891A322979D310
:101730000068A0602079002874D07049084410F82F
:10174000011C0D2901D00A296CD1002500F8015C8B
:101750006BA001F053F86BA16848FEF7A9FD07469E
:1017600068A10020FEF7A4FD06464FF4FA78002F8A
:101770006FD065A13846FEF78DFD002829D064A101
:101780003846FEF787FD00284DD062A13846FEF7A7
:1017900081FD002875D060A13846FEF77BFD00284A
:1017A00070D05FA13846FEF775FD00286BD05EA1B2
:1017B0003846FEF76FFD00287AD05DA13846FEF767
:1017C00069FD002875D039465BA001F017F860A0CC
:1017D00095E369A001F012F86DA001F00FF879A06F
:1017E00001F00CF884A001F009F88DA001F006F8D2
:1017F00097A001F003F8A1A001F000F8AAA000F062
:10180000FDFFB4A000F0FAFFBCA000F0F7FFC6A0F7
:1018100000F0F4FFCFA000F0F1FFD9A000F0EEFF40
:10182000E2A06CE3A3E39EB136A10020FEF740FDE9
:10183000070011D0EAA13046FEF72CFD70B1EAA1F5
:101840003046FEF727FD002825D03146E7A00EE3FD
:1018500000E0CBE2EBA052E3F4A0DAE2FCA13846D0
:10186000FEF718FDFB4E28B1FBA13846FEF712FD2E
:1018700050B11BE0002204213046FEF7A3FFF7A081
:101880003DE327E03CE267E3012204213046FEF716
:1018900099FFF8A033E3EEA13846FEF7FBFCFB4EC0
:1018A00050B1EDA13846FEF7F5FC60B1394601E0D4
:1018B00057E35BE3F6A0DAE2002220213046FEF790
:1018C00081FFF8A01BE3012220213046FEF77AFFBA
:1018D000F9A014E356B1FEA13046FEF7DBFC30B1AF
:1018E000FDA13046FEF7D6FC10B1F9E100E201E2BD
:1018F00002E200002C000020000000207800002000
:101900000D0A00002000000068656C7000000000F7
:101910006C65640063616E007769666900000000B1
:1019200076657273696F6E00636C656172000000AA
:10193000737973696E666F00556E6B6E6F776E208C
:10194000636F6D6D616E643A2025730D0A000000AF
:1019500054797065202768656C702720666F722047
:10196000617661696C61626C6520636F6D6D616E3B
:1019700064730D0A00000000417661696C61626C5D
:101980006520636F6D6D616E64733A0D0A0000002F
:10199000202068656C70202020202020202020201E
:1019A0002020202020202D2053686F772074686924
:1019B000732068656C70206D6573736167650D0ACF
:1019C00000000000202076657273696F6E20202071
:1019D000202020202020202020202D2053686F77D9
:1019E0002076657273696F6E20696E666F726D61C5
:1019F00074696F6E0D0A00002020636C65617220AF
:101A000020202020202020202020202020202D20C9
:101A1000436C6561722073637265656E0D0A000028
:101A2000202063616E205B696E69742F73656E643C
:101A30002F6765745D202D2043414E206275732011
:101A40006F7065726174696F6E730D0A000000003B
:101A5000202077696669205B7363616E2F636F6E08
:101A60006E6563745D202D2057694669206F70652F
:101A7000726174696F6E730D0A000000202072732A
:101A8000343835205B73656E642F726563765D2034
:101A900020202D205253343835206F7065726174C8
:101AA000696F6E730D0A0000202075617274205BEF
:101AB000636F6E6669672F73656E645D20202D20ED
:101AC00055415254206F7065726174696F6E730D69
:101AD0000A000000202070776D205B7374617274BF
:101AE0002F73746F705D202020202D2050574D20C3
:101AF000636F6E74726F6C0D0A00000020206164C9
:101B000063205B73746172742F726561645D202061
:101B100020202D20414443206F7065726174696FED
:101B20006E730D0A000000002020693263205B7391
:101B300063616E2F726561645D20202020202D205E
:101B4000493243206F7065726174696F6E730D0A5C
:101B5000000000002020737069205B696E69742F9B
:101B60007472616E736665725D202D20535049203A
:101B70006F7065726174696F6E730D0A000000000A
:101B800020206C6564205B6E756D6265725D205B04
:101B90006F6E2F6F66665D202D204C6564206F7020
:101BA00065726174696F6E730D0A0000202073798D
:101BB00073696E666F2020202020202020202020A6
:101BC00020202D2053686F772073797374656D2002
:101BD000696E666F726D6174696F6E0D0A00000048
:101BE000626C75650000000072656400556E6B6E76
:101BF0006F776E204C454420636F6C6F723A2025DE
:101C0000730D0A004C45442075736167653A206C7A
:101C10006564205B626C75652F7265645D205B6F27
:101C20006E2F6F66665D0D0A00000000506C6561E6
:101C300073652073706563696679204C4544207331
:101C400074617465205B6F6E2F6F66665D0D0A00B0
:101C50006F6E0000000402406F666600426C75659E
:101C6000204C4544207475726E6564206F6E0D0AB9
:101C700000000000426C7565204C4544207475726C
:101C80006E6564206F66660D0A0000000008024061
:101C9000496E76616C69642073746174653A2025BD
:101CA000730D0A00526564204C4544207475726EB1
:101CB0006564206F6E0D0A00526564204C45442017
:101CC0007475726E6564206F66660D0A0000000010
:101CD000696E69740000000073656E6400000000A6
:101CE000A3A13046FEF7D6FA40B13146A1A0BEE02E
:101CF000A7A004E1AFA002E1B4A000E1BAA0FEE019
:101D0000002E3BD0BFA13046FEF7C4FAA8B3BFA156
:101D10003046FEF7BFFA002837D0BEA13046FEF7A6
:101D2000B9FA002859D0BEA13046FEF7B3FA002810
:101D300059D0AFF25C013046FEF7ACFA4FF4807731
:101D4000002854D0B8A13046FEF7A4FA00287ED06F
:101D5000B6A13046FEF79EFA002873D0B6A13046F1
:101D6000FEF798FA00286ED0B7A13046FEF792FA37
:101D7000002869D03146B7A079E001E0BC48BEE058
:101D8000BCA000F03BFDC2A02EE0AFF288410020D5
:101D9000FEF78EFA0746AFF294410020FEF788FA6C
:101DA0000646C7B1BEB11F223946BC48FEF75FFAEE
:101DB000BA481F2231462030FEF759FA3B46B8A2F6
:101DC000802101A8009600F029FD01A800F04AFB3F
:101DD0003946B9A04BE0BEA091E0C7A000F042FB9D
:101DE0006570C8A08BE0CFA000F03CFB89E0A07834
:101DF00070B19EA10020FEF75BFA0600F6D0E078F5
:101E0000002830460AD000F02DFB3146C8A02EE055
:101E1000CFA040B0BDE8F04100F0F0BCFEF733FACF
:101E20000346D1A23946684600F0F8FC684600F047
:101E300019FB6420FEF79CFB304600F013FB314693
:101E400003E004E016E06AE06FE0CBA00FE087A1BA
:101E50000020FEF72DFA030053D0CEA23946684683
:101E600000F0DCFC684600F0FDFA6946CBA000F00B
:101E7000C5FC46E0AFF274510020FEF719FA0646A1
:101E8000AFF280510020FEF713FA074626B10F2269
:101E90003146C948FEF7EBF91FB13846FEF72AFA7A
:101EA000E080E0880090C44BC4A2402101A800F06B
:101EB000B5FC01A800F0D6FAE288BF49C6A000F040
:101EC0009DFCFEF787FC064641F2883702E064205D
:101ED000FEF74EFBA07830B9FEF77CFC801BB842C1
:101EE000F5D3A078C8B1C5A000F0BCFA6420FEF715
:101EF0003FFBC6A000F0B6FA0120E070C7A000F0DA
:101F00007DFCCDA000F07AFC257140B04146BDE8D3
:101F1000F04162484030FEF78DB9C8A0EFE7CEA08F
:101F200000F0A0FAA570D0A0E9E7D5A000F066FC0B
:101F3000E288A149D8A000F061FCA07808B1DAA13C
:101F400000E0DAA1DAA000F059FCE07808B1D6A1EF
:101F500000E0D6A1DAA08AE7DFA000F04FFCE2A003
:101F6000CDE7E9A000F04AFCE9A0C8E7EAE1F9E121
:101F700067657400556E6B6E6F776E2043414E201F
:101F8000636F6D6D616E643A2025730D0A00000069
:101F900043414E2075736167653A2063616E205B33
:101FA000696E69742F73656E642F6765745D0D0AC1
:101FB00000000000496E697469616C697A696E6736
:101FC0002043414E2E2E2E0D0A00000053656E64F4
:101FD000696E672043414E206D6573736167652E9E
:101FE0002E2E0D0A0000000047657474696E67208C
:101FF00043414E206D6573736167652E2E2E0D0A69
:10200000000000007363616E00000000636F6E6E7D
:1020100065637400646973636F6E6E65637400005A
:10202000737461747573000061740000636F6E6E89
:102030006563745F74637000646973636F6E6E656B
:1020400063745F74637000007463705F64656275CD
:1020500067000000556E6B6E6F776E20576946699A
:1020600020636F6D6D616E643A2025730D0A000068
:10207000C82D00085363616E6E696E67205769460C
:1020800069206E6574776F726B732E2E2E0D0A00A9
:1020900041542B43574C41500D0A0000380000209A
:1020A00041542B43574A41503D222573222C22256F
:1020B00073220D0A00000000436F6E6E6563746941
:1020C0006E6720746F2025732E2E2E0D0A000000DF
:1020D00055736167653A207769666920636F6E6E34
:1020E000656374205B535349445D205B50415353F7
:1020F000574F52445D0D0A0041542B4357514150F4
:102100000D0A0000446973636F6E6E656374696ED7
:10211000672066726F6D20576946692E2E2E0D0A54
:102120000000000041542B43574A41503F0D0A0024
:1021300053656E7420696E207472616E7370617283
:10214000656E74206D6F64653A2025730D0A00007A
:10215000544350206E6F7420636F6E6E65637465B8
:1021600064210D0A0000000041542B43495053459F
:102170004E443D25640D0A0053656E7420696E203F
:102180006E6F726D616C206D6F64653A2025730D02
:102190000A00000041542B25730D0A0053656E643C
:1021A000696E6720415420636F6D6D616E643A20E3
:1021B00025730D0A000000000C00002041542B4341
:1021C000495053544152543D22544350222C22250D
:1021D00073222C25640D0A00436F6E6E656374696B
:1021E0006E6720746F205443502073657276657259
:1021F0002025733A25642E2E2E0D0A0041542B43C0
:1022000049504D4F44453D310D0A000041542B4388
:10221000495053454E440D0A00000000456E746558
:10222000726564207472616E73706172656E742081
:102230006D6F64650D0A00003E3E2000544350203F
:10224000636F6E6E656374696F6E2074696D656F20
:102250007574210A0000000041542B434950434C3F
:102260004F53450D0A000000446973636F6E6E653D
:102270006374696E67205443502E2E2E0D0A0000A1
:1022800054435020436F6E6E656374696F6E2053C4
:1022900074617475733A0A005365727665723A20F8
:1022A00025733A25640A0000596573004E6F0000DB
:1022B000436F6E6E65637465643A2025730A00008F
:1022C0005472616E73706172656E74204D6F6465D7
:1022D0003A2025730A0000004D6F546F6F6C205632
:1022E000302E310D0A0000004275696C643A204DB1
:1022F000617920313820323032352031323A31396B
:102300003A30380D0A0000001B5B324A1B5B480064
:102310004D6F546F6F6C2056302E31202D20547924
:102320007065202768656C702720666F7220617663
:1023300061696C61626C6520636F6D6D616E647361
:102340000D0A000009A000F059FAFEF7DDFB0D4967
:10235000B0FBF1F10CA000F051FAFEF73BFA014698
:1023600010A084E540B0BDE8F0810000537973749B
:10237000656D20496E666F726D6174696F6E3A0D9E
:102380000A00000040420F0020204350553A2053DD
:10239000544D33324634303720402025644D487A3E
:1023A0000D0A00002020557074696D653A20256C77
:1023B00075206D730D0A00007047FEF711BA00001A
:1023C00030B593B030216846FDF734FF14210CA8D6
:1023D000FDF730FF1D480025016841F08051016084
:1023E000006800F0805011901948016841F4804164
:1023F00001600068022400F48040119001200390E5
:1024000010200490009406940820CDE90750A820DD
:10241000CDE9090404200B906846FEF7ABFB08B138
:1024200072B6FEE70CA90F2081E831004FF4A050EE
:102430000F904FF48050109005210CA8FEF780FA01
:10244000002801D072B6FEE713B030BD403802401C
:10245000007000400248016841F47001016070475B
:1024600088ED00E010B50446FDF70DFF214682B26D
:10247000BDE8104032230148FFF766B8B4030020DE
:1024800010B5806B0021C185FEF7CBFD10BD016842
:102490000C3151E8002F22F4907241E80023002B08
:1024A000F5D10168143151E8002F22F0010241E812
:1024B0000023002BF5D1016B012909D101680C31F2
:1024C00051E8002F22F0100241E80023002BF5D143
:1024D000202180F8421000210163704710B5016887
:1024E000CA6822F04002CA60202180F84110FFF73C
:1024F00087F8002010BD08B590F84210222901D0BD
:10250000022008BD8268B2F5805F01D1016929B15E
:10251000816AB2F5805F1DD052B10BE0816A02681A
:102520005268C2F308020A80816A891C816209E04C
:1025300002697AB10268526802F07F020A70816A09
:10254000491C8162C18D491E0904090CC18505D051
:10255000002008BD026852680A70F0E70168CA6886
:1025600022F02002CA600168CA6822F48072CA6040
:1025700001684A6922F001024A61202180F8421074
:1025800000214163026B012A03D0FEF735FF0020D2
:1025900008BD016301680C3151E8002F22F01002E0
:1025A00041E80023002BF5D101680A6812F0100FF2
:1025B00002D00A6849680091818DFEF731FDE6E797
:1025C0002DE9F041044620680169E26821F4405198
:1025D000114301612169A068E269084361691143FF
:1025E00001432068C26822F4037222F414421143AA
:1025F000C16020684169A26921F4407111434161C1
:102600002068A0F18041B1F588312ED0A0F1804141
:10261000B1F58A3129D0FEF757FA8446E1690020E6
:102620001927254D3226B1F5004F22D06068830F5F
:102630008200ACFB0701FDF7C5FD0146A5FB0020AC
:1026400040097A42424301EB820106EB0111A5FBEE
:102650000121490901F0F00202EB001001F00F0125
:10266000084421688860BDE8F081FEF73DFA8446A1
:10267000D4E761684A1840EB0003ACFB0701FDF7A3
:10268000A1FD0346A5FB0010410918460A016FF0A1
:102690001803594300EB810006EBC000A5FB0010B6
:1026A000400900F0F80102EB410100F00700084486
:1026B00021688860BDE8F0811F85EB5181628285C9
:1026C000C28500214164222180F84210016900295D
:1026D00004D00168CA6842F48072CA6001684A691D
:1026E00042F001024A610068C16841F02001C16006
:1026F0000020704790F84110212901D00220704736
:102700008168B1F5805F01D1016961B1016A4A1C3C
:102710000262026809785160C18C491E0904090CE3
:10272000C1840AD013E0016A02680988C1F3080174
:102730005160016A891C0162EEE70168CA6822F0F3
:102740008002CA600068C16841F04001C160002099
:1027500070472DE9F8430446089E0D4617469846F3
:102760002068006835EA000028D00020B84232D145
:10277000B6F1FF3F27D0FEF72DF8A0EB0800B042DE
:102780001ED8EEB12068C16811F0040F1BD0802D57
:1027900019D0402D17D0016811F0080F13D0002573
:1027A00021680968406800902046FFF770FE082005
:1027B000606484F840500120BDE8F8830120D5E72B
:1027C0000320BDE8F8832068006835EA000005D0E2
:1027D0000020B842CCD00020BDE8F8830120F8E703
:1027E0000148FEF71FBC00006C0300200148FEF703
:1027F00019BC0000B4030020FEE700000FB4054B35
:1028000010B503A9044A029800F036F810BC5DF830
:1028100014FB0000BD2A00081C0000200FB47CB58A
:102820000C0009AD01D0611E00E00021CDE90001DE
:10283000064B6A462946089800F01EF8002C02D084
:10284000009A002111707CBC5DF814FBA52A0008D9
:10285000004870473400002002E008C8121F08C179
:10286000002AFAD170477047002001E001C1121F11
:10287000002AFBD1704700002DE9FF4F8BB09A462C
:102880000F460446002606E025280BD052460D9937
:102890009047641C761C20780028F5D10FB0304694
:1028A000BDE8F08F0025A94601227D4900E00543DF
:1028B00014F8013F203B02FA03F00842F7D12078D8
:1028C0002E2817D114F8010F45F004052A280ED040
:1028D0006FF02F022078A0F1300109290AD809EB06
:1028E000890102EB410100EB0109641CF2E757F892
:1028F000049B641C20786C280DD004DC4C2812D07A
:102900006A2811D104E074280DD07A280CD10AE08D
:1029100045F4001507E0617845F48015814202D145
:10292000641C05F58015641C207869283ED006DCFF
:102930000028B3D063280BD0642804D136E0732874
:1029400010D075285CD052460D999047761CA5E0B2
:1029500017F8040B8DF8000000208DF80100E84600
:10296000012003E057F8048B4FF0FF3069074FF068
:10297000000501D40AE06D1C4D450DDA8542FADBF5
:1029800018F805100029F6D106E06D1C8542FCDB25
:1029900018F805100029F8D12E4404E018F8010BAE
:1029A00052460D9990476D1EF8D277E000200A90AC
:1029B000C5F302504FF00A0B02280CD001CFC1170B
:1029C000021E71F100020CDA0023D0EB030063EB6E
:1029D00001012D2208E0FF1D27F00707F7E802019B
:1029E000EEE72A0504D52B228DF82420012203E0EE
:1029F000EA070FD02022F7E70DF12008089218E02F
:102A000000200A90C5F302504FF00A0B022803D0B1
:102A100001CF00210022EFE7FF1D27F00707F7E8AD
:102A20000201F7E75A460A9BFDF7CCFB303208F863
:102A3000012D50EA0102F5D1ADEB080000F1200BA9
:102A4000680701D44FF00109D94502DDA9EB0B005D
:102A500000E000208146002506E009A85246405DBE
:102A60000D9990476D1C761C08988542F5DB04E0B3
:102A7000302052460D999047761CB9F10001A9F11A
:102A80000109F5DC05E018F8010B52460D99904755
:102A9000761CBBF10001ABF1010BF4DC641CFAE61F
:102AA000092801004A68002A06D00A68531C0B60F6
:102AB00010704868401E48607047000013B532230C
:102AC000012269460248FEF73FFD00981CBD000048
:102AD0006C030020FDF78CFEFFF772FCFEF792FD01
:102AE000FEF7E0FDFEF7FAFD012220492048FEF73F
:102AF00075FC01221D491F48FEF770FC1EA0FFF760
:102B00007DFE1E48FFF77AFE1D48FFF777FE1D4841
:102B1000FFF774FE1C48FFF771FE1C48FFF76EFEBE
:102B20001B48FFF76BFE1B48FFF768FE1A48FFF7CC
:102B300065FE1A48FFF762FE1948FFF75FFE194865
:102B4000FFF75CFE0CA0FFF759FE17A0FFF756FE3B
:102B50002448FFF753FE08A0FFF750FE22A0FFF71E
:102B60004DFE00BFFEF7DAFDFCE700000500002087
:102B70006C030020B40300200D0A0000082D00089B
:102B80009C2E0008103000088C300008942F00089C
:102B9000083100088431000800320008182F0008AE
:102BA000202E00088C2C000820202020202020200F
:102BB0002020202020202020202020202020202015
:102BC0002020202020202020202057656C636F6D5E
:102BD0006520746F204D6F546F6F6C2056302E310E
:102BE0000D0A0000842D00083E3E20000000000079
:102BF00000000000010203040607080900000000AD
:102C000001020304004040404040404040404141F8
:102C100041414140404040404040404040404040B1
:102C2000404040404005020202020202020202024B
:102C30000202020202202020202020202020200248
:102C400002020202020290909090909010101010D8
:102C50001010101010101010101010101010101074
:102C60000202020202028888888888880808080808
:102C700008080808080808080808080808080808D4
:102C80000202020240000000052C000820272D2D22
:102C90002D2D2D2D2D2D2D2D2D2D2D2D2D2D272077
:102CA00020272D2D2D2D2D2D2D2D2D2D2D2D2D2D67
:102CB0002D2D272020272D2D2D2D2D2D2D2D2D2D6A
:102CC0002D2D2D2D2D2D272020272D2D2D2D2D2D5A
:102CD0002D2D2D2D2D2D2D2D2D2D272020272D2D4A
:102CE0002D2D2D2D2D2D2D2D2D2D2D2D2D2D272027
:102CF00020272D2D2D2D2D2D2D2D2D2D2D2D2D2D17
:102D00002D2D27200D0A00002E2D2D2D2D2D2D2DA2
:102D10002D2D2D2D2D2D2D2D2D2E20202E2D2D2DFB
:102D20002D2D2D2D2D2D2D2D2D2D2D2D2D2E2020EC
:102D30002E2D2D2D2D2D2D2D2D2D2D2D2D2D2D2DC2
:102D40002D2E20202E2D2D2D2D2D2D2D2D2D2D2DCB
:102D50002D2D2D2D2D2E20202E2D2D2D2D2D2D2DBB
:102D60002D2D2D2D2D2D2D2D2D2E20202E2D2D2DAB
:102D70002D2D2D2D2D2D2D2D2D2D2D2D2D2E200DAF
:102D80000A000000202020202020202020202020B9
:102D90002020202020202020202020204D756C7411
:102DA000692D66756E6374696F6E20446562756720
:102DB00020417373697374616E7420666F7220535F
:102DC000544D33320D0A000057694669207573610E
:102DD00067653A2077696669205B7363616E2F636C
:102DE0006F6E6E6563742F646973636F6E6E656377
:102DF000742F7374617475732F73656E642F6174AF
:102E00002F636F6E6E6563745F7463702F64697394
:102E1000636F6E6E6563745F7463705D0D0A0000AE
:102E20007C20272D2D2D2D2D2D2D2D2D2D2D2D2D96
:102E30002D27207C7C20272D2D2D2D2D2D2D2D2D4A
:102E40002D2D2D2D2D27207C7C20272D2D2D2D2D3A
:102E50002D2D2D2D2D2D2D2D2D27207C7C20272D2A
:102E60002D2D2D2D2D2D2D2D2D2D2D2D2D27207C56
:102E70007C20272D2D2D2D2D2D2D2D2D2D2D2D2D46
:102E80002D27207C7C20272D2D2D2D2D2D2D2D2DFA
:102E90002D2D2D2D2D27207C0D0A00007C202E2D80
:102EA0002D2D2D2D2D2D2D2D2D2D2D2D2D2E207C0F
:102EB0007C202E2D2D2D2D2D2D2D2D2D2D2D2D2DFF
:102EC0002D2E207C7C202E2D2D2D2D2D2D2D2D2DAC
:102ED0002D2D2D2D2D2E207C7C202E2D2D2D2D2D9C
:102EE0002D2D2D2D2D2D2D2D2D2E207C7C202E2D8C
:102EF0002D2D2D2D2D2D2D2D2D2D2D2D2D2E207CBF
:102F00007C202E2D2D2D2D2D2D2D2D2D2D2D2D2DAE
:102F10002D2E207C0D0A00007C207C2020202020EB
:102F20002020202020202020207C207C7C207C2031
:102F3000202020202020202020202020207C207CD9
:102F40007C207C20202020202020202020202020C9
:102F5000207C207C7C207C20202020202020202001
:102F600020202020207C207C7C207C2020202020F1
:102F70002020202020202020207C207C7C207C20E1
:102F8000202020202020202020202020207C207C89
:102F90000D0A00007C207C20207C2020205C2F203B
:102FA00020207C20207C207C7C207C20202F202046
:102FB0002E2D2D2E20205C20207C207C7C207C202F
:102FC0007C5F2F207C207C205C5F7C20207C207C10
:102FD0007C207C20202F20202E2D2D2E20205C20B8
:102FE000207C207C7C207C20202F20202E2D2D2E2C
:102FF00020205C20207C207C7C207C202020207CC9
:10300000207C202020202020207C207C0D0A000015
:103010007C207C205F5F5F5F202020205F5F5F5F00
:10302000207C207C7C207C20202020205F5F5F5F34
:1030300020202020207C207C7C207C20205F5F5F63
:103040005F5F5F5F5F5F2020207C207C7C207C2096
:10305000202020205F5F5F5F20202020207C207CBC
:103060007C207C20202020205F5F5F5F20202020AC
:10307000207C207C7C207C2020205F5F5F5F5F20A5
:1030800020202020207C207C0D0A00007C207C7CDD
:103090005F2020205C20202F2020205F7C7C207C53
:1030A0007C207C2020202E2720202020602E202005
:1030B000207C207C7C207C207C20205F2020205FC6
:1030C00020207C20207C207C7C207C2020202E271F
:1030D00020202020602E2020207C207C7C207C2032
:1030E00020202E2720202020602E2020207C207CC5
:1030F0007C207C20207C5F2020205F7C20202020E2
:10310000207C207C0D0A00007C207C20207C207C00
:103110005C20202F7C207C20207C207C7C207C203C
:10312000207C207C202020207C207C20207C207C77
:103130007C207C20202020207C207C20202020201F
:10314000207C207C7C207C20207C207C2020202057
:103150007C207C20207C207C7C207C20207C207C8F
:10316000202020207C207C20207C207C7C207C2037
:103170002020207C207C2020205F2020207C207CA0
:103180000D0A00007C207C205F7C207C5F5C2F5F30
:103190007C207C5F207C207C7C207C20205C20208C
:1031A000602D2D2720202F20207C207C7C207C203F
:1031B0002020205F7C207C5F20202020207C207C21
:1031C0007C207C20205C2020602D2D2720202F209B
:1031D000207C207C7C207C20205C2020602D2D27E2
:1031E00020202F20207C207C7C207C2020205F7CC5
:1031F000207C5F5F2F207C20207C207C0D0A00003B
:103200007C207C7C5F5F5F5F5F7C7C5F5F5F5F5F7C
:103210007C7C207C7C207C202020602E5F5F5F5F98
:103220002E272020207C207C7C207C2020207C5F7E
:103230005F5F5F5F7C202020207C207C7C207C20C6
:103240002020602E5F5F5F5F2E272020207C207C67
:103250007C207C202020602E5F5F5F5F2E27202057
:10326000207C207C7C207C20207C5F5F5F5F5F5F18
:103270005F5F7C20207C207C0D0A00009C320008CF
:10328000000000203800000058280008D432000850
:1032900038000020C807000068280008000000006F
:1032A0000000901F000000003139322E3136382ED8
:1032B000312E313030000000000000000024F40006
:1032C00001000000100000000000000000000000ED
:0432D00000000000FA
:040000050800018965
:00000001FF
